{
  "abi": [
    {
      "inputs": [
        {
          "internalType": "address",
          "name": "_parentForwarder",
          "type": "address"
        },
        {
          "internalType": "contract IPoolAddressProvider",
          "name": "_poolAddressesProvider",
          "type": "address"
        },
        {
          "internalType": "contract IWETHGateway",
          "name": "_wethGateway",
          "type": "address"
        },
        {
          "internalType": "contract IDataProvider",
          "name": "_dataProvider",
          "type": "address"
        },
        {
          "internalType": "contract IWETH",
          "name": "_weth",
          "type": "address"
        }
      ],
      "stateMutability": "nonpayable",
      "type": "constructor"
    },
    {
      "inputs": [],
      "name": "dataProvider",
      "outputs": [
        {
          "internalType": "contract IDataProvider",
          "name": "",
          "type": "address"
        }
      ],
      "stateMutability": "view",
      "type": "function"
    },
    {
      "inputs": [
        {
          "internalType": "contract IERC20",
          "name": "_token",
          "type": "address"
        },
        {
          "internalType": "uint256",
          "name": "_amount",
          "type": "uint256"
        },
        {
          "internalType": "address",
          "name": "_user",
          "type": "address"
        }
      ],
      "name": "invest",
      "outputs": [],
      "stateMutability": "payable",
      "type": "function"
    },
    {
      "inputs": [],
      "name": "lendingPool",
      "outputs": [
        {
          "internalType": "contract ILendingPoolV3",
          "name": "",
          "type": "address"
        }
      ],
      "stateMutability": "view",
      "type": "function"
    },
    {
      "inputs": [],
      "name": "parentForwarder",
      "outputs": [
        {
          "internalType": "address",
          "name": "",
          "type": "address"
        }
      ],
      "stateMutability": "view",
      "type": "function"
    },
    {
      "inputs": [
        {
          "internalType": "contract IERC20",
          "name": "_token",
          "type": "address"
        },
        {
          "internalType": "uint256",
          "name": "_amount",
          "type": "uint256"
        },
        {
          "internalType": "address",
          "name": "_user",
          "type": "address"
        }
      ],
      "name": "redeem",
      "outputs": [],
      "stateMutability": "nonpayable",
      "type": "function"
    },
    {
      "inputs": [],
      "name": "weth",
      "outputs": [
        {
          "internalType": "contract IWETH",
          "name": "",
          "type": "address"
        }
      ],
      "stateMutability": "view",
      "type": "function"
    },
    {
      "inputs": [],
      "name": "wethGateway",
      "outputs": [
        {
          "internalType": "contract IWETHGateway",
          "name": "",
          "type": "address"
        }
      ],
      "stateMutability": "view",
      "type": "function"
    }
  ],
  "bytecode": {
    "object": "0x61012060405234801561001157600080fd5b50604051610cae380380610cae833981016040819052610030916100eb565b846001600160a01b0316610100816001600160a01b031681525050836001600160a01b031663026b1d5f6040518163ffffffff1660e01b8152600401602060405180830381865afa158015610089573d6000803e3d6000fd5b505050506040513d601f19601f820116820180604052508101906100ad9190610160565b6001600160a01b0390811660a05292831660805290821660e0521660c052506101849050565b6001600160a01b03811681146100e857600080fd5b50565b600080600080600060a0868803121561010357600080fd5b855161010e816100d3565b602087015190955061011f816100d3565b6040870151909450610130816100d3565b6060870151909350610141816100d3565b6080870151909250610152816100d3565b809150509295509295909350565b60006020828403121561017257600080fd5b815161017d816100d3565b9392505050565b60805160a05160c05160e05161010051610a7f61022f600039600060e4015260008181610181015281816102cc01526103870152600081816087015281816101f7015281816102a40152818161065e015281816106b3015261073301526000818161014d015281816104ef015281816105dc015281816107e20152818161089901526109710152600081816101b5015281816104350152818161052601526108170152610a7f6000f3fe6080604052600436106100705760003560e01c8063671904161161004e5780636719041614610128578063a59a99731461013b578063b334ed861461016f578063c5e10eef146101a357600080fd5b80633fc8cef3146100755780635871ce4a146100d25780635c833bfd14610106575b600080fd5b34801561008157600080fd5b506100a97f000000000000000000000000000000000000000000000000000000000000000081565b60405173ffffffffffffffffffffffffffffffffffffffff909116815260200160405180910390f35b3480156100de57600080fd5b506100a97f000000000000000000000000000000000000000000000000000000000000000081565b34801561011257600080fd5b506101266101213660046109c5565b6101d7565b005b6101266101363660046109c5565b61063e565b34801561014757600080fd5b506100a97f000000000000000000000000000000000000000000000000000000000000000081565b34801561017b57600080fd5b506100a97f000000000000000000000000000000000000000000000000000000000000000081565b3480156101af57600080fd5b506100a97f000000000000000000000000000000000000000000000000000000000000000081565b73ffffffffffffffffffffffffffffffffffffffff8316158061024557507f000000000000000000000000000000000000000000000000000000000000000073ffffffffffffffffffffffffffffffffffffffff168373ffffffffffffffffffffffffffffffffffffffff16145b1561058857600073ffffffffffffffffffffffffffffffffffffffff8416610342576040517fd2493b6c00000000000000000000000000000000000000000000000000000000815273ffffffffffffffffffffffffffffffffffffffff7f0000000000000000000000000000000000000000000000000000000000000000811660048301527f0000000000000000000000000000000000000000000000000000000000000000169063d2493b6c90602401606060405180830381865afa158015610313573d6000803e3d6000fd5b505050506040513d601f19601f820116820180604052508101906103379190610a07565b509091506103f89050565b6040517fd2493b6c00000000000000000000000000000000000000000000000000000000815273ffffffffffffffffffffffffffffffffffffffff85811660048301527f0000000000000000000000000000000000000000000000000000000000000000169063d2493b6c90602401606060405180830381865afa1580156103ce573d6000803e3d6000fd5b505050506040513d601f19601f820116820180604052508101906103f29190610a07565b50909150505b6040517f095ea7b300000000000000000000000000000000000000000000000000000000815273ffffffffffffffffffffffffffffffffffffffff7f0000000000000000000000000000000000000000000000000000000000000000811660048301526024820185905282169063095ea7b3906044016020604051808303816000875af115801561048d573d6000803e3d6000fd5b505050506040513d601f19601f820116820180604052508101906104b19190610a49565b506040517f80500d2000000000000000000000000000000000000000000000000000000000815273ffffffffffffffffffffffffffffffffffffffff7f0000000000000000000000000000000000000000000000000000000000000000811660048301526024820185905283811660448301527f000000000000000000000000000000000000000000000000000000000000000016906380500d2090606401600060405180830381600087803b15801561056a57600080fd5b505af115801561057e573d6000803e3d6000fd5b5050505050505050565b6040517f69328dec00000000000000000000000000000000000000000000000000000000815273ffffffffffffffffffffffffffffffffffffffff84811660048301526024820184905282811660448301527f000000000000000000000000000000000000000000000000000000000000000016906369328dec906064015b600060405180830381600087803b15801561062157600080fd5b505af1158015610635573d6000803e3d6000fd5b50505050505050565b73ffffffffffffffffffffffffffffffffffffffff831615806106ac57507f000000000000000000000000000000000000000000000000000000000000000073ffffffffffffffffffffffffffffffffffffffff168373ffffffffffffffffffffffffffffffffffffffff16145b1561085c577f000000000000000000000000000000000000000000000000000000000000000073ffffffffffffffffffffffffffffffffffffffff168373ffffffffffffffffffffffffffffffffffffffff16036107a5576040517f2e1a7d4d000000000000000000000000000000000000000000000000000000008152600481018390527f000000000000000000000000000000000000000000000000000000000000000073ffffffffffffffffffffffffffffffffffffffff1690632e1a7d4d90602401600060405180830381600087803b15801561078c57600080fd5b505af11580156107a0573d6000803e3d6000fd5b505050505b6040517f474cf53d00000000000000000000000000000000000000000000000000000000815273ffffffffffffffffffffffffffffffffffffffff7f000000000000000000000000000000000000000000000000000000000000000081166004830152306024830152600060448301527f0000000000000000000000000000000000000000000000000000000000000000169063474cf53d9084906064016000604051808303818588803b15801561056a57600080fd5b6040517f095ea7b300000000000000000000000000000000000000000000000000000000815273ffffffffffffffffffffffffffffffffffffffff7f0000000000000000000000000000000000000000000000000000000000000000811660048301526024820184905284169063095ea7b3906044016020604051808303816000875af11580156108f1573d6000803e3d6000fd5b505050506040513d601f19601f820116820180604052508101906109159190610a49565b506040517f617ba03700000000000000000000000000000000000000000000000000000000815273ffffffffffffffffffffffffffffffffffffffff8481166004830152602482018490528281166044830152600060648301527f0000000000000000000000000000000000000000000000000000000000000000169063617ba03790608401610607565b73ffffffffffffffffffffffffffffffffffffffff811681146109c257600080fd5b50565b6000806000606084860312156109da57600080fd5b83356109e5816109a0565b92506020840135915060408401356109fc816109a0565b809150509250925092565b600080600060608486031215610a1c57600080fd5b8351610a27816109a0565b6020850151909350610a38816109a0565b60408501519092506109fc816109a0565b600060208284031215610a5b57600080fd5b81518015158114610a6b57600080fd5b939250505056fea164736f6c6343000814000a",
    "linkReferences": {}
  },
  "methodIdentifiers": {
    "dataProvider()": "b334ed86",
    "invest(address,uint256,address)": "67190416",
    "lendingPool()": "a59a9973",
    "parentForwarder()": "5871ce4a",
    "redeem(address,uint256,address)": "5c833bfd",
    "weth()": "3fc8cef3",
    "wethGateway()": "c5e10eef"
  },
  "id": 1
}