{
  "abi": [
    {
      "inputs": [],
      "stateMutability": "nonpayable",
      "type": "constructor"
    },
    {
      "inputs": [
        {
          "internalType": "address",
          "name": "target",
          "type": "address"
        }
      ],
      "name": "AddressEmptyCode",
      "type": "error"
    },
    {
      "inputs": [],
      "name": "FailedInnerCall",
      "type": "error"
    },
    {
      "inputs": [
        {
          "internalType": "address",
          "name": "owner",
          "type": "address"
        }
      ],
      "name": "OwnableInvalidOwner",
      "type": "error"
    },
    {
      "inputs": [
        {
          "internalType": "address",
          "name": "account",
          "type": "address"
        }
      ],
      "name": "OwnableUnauthorizedAccount",
      "type": "error"
    },
    {
      "anonymous": false,
      "inputs": [
        {
          "indexed": true,
          "internalType": "address",
          "name": "supplyToken",
          "type": "address"
        },
        {
          "indexed": true,
          "internalType": "address",
          "name": "borrowToken",
          "type": "address"
        },
        {
          "indexed": false,
          "internalType": "uint256",
          "name": "supplyAmount",
          "type": "uint256"
        },
        {
          "indexed": false,
          "internalType": "uint256",
          "name": "borrowAmount",
          "type": "uint256"
        },
        {
          "indexed": true,
          "internalType": "address",
          "name": "from",
          "type": "address"
        }
      ],
      "name": "AaveSupplyAndBorrow",
      "type": "event"
    },
    {
      "anonymous": false,
      "inputs": [
        {
          "indexed": true,
          "internalType": "address",
          "name": "token",
          "type": "address"
        },
        {
          "indexed": true,
          "internalType": "uint256",
          "name": "amount",
          "type": "uint256"
        },
        {
          "indexed": true,
          "internalType": "address",
          "name": "from",
          "type": "address"
        }
      ],
      "name": "AaveWithdraw",
      "type": "event"
    },
    {
      "anonymous": false,
      "inputs": [
        {
          "indexed": true,
          "internalType": "address",
          "name": "previousOwner",
          "type": "address"
        },
        {
          "indexed": true,
          "internalType": "address",
          "name": "newOwner",
          "type": "address"
        }
      ],
      "name": "OwnershipTransferred",
      "type": "event"
    },
    {
      "inputs": [
        {
          "internalType": "contract IERC20Metadata",
          "name": "supplyToken",
          "type": "address"
        },
        {
          "internalType": "contract IERC20Metadata",
          "name": "borrowToken",
          "type": "address"
        },
        {
          "internalType": "uint256",
          "name": "supplyAmount",
          "type": "uint256"
        },
        {
          "internalType": "uint256",
          "name": "borrowAmount",
          "type": "uint256"
        },
        {
          "internalType": "address",
          "name": "from",
          "type": "address"
        }
      ],
      "name": "aaveSupplyAndBorrow",
      "outputs": [],
      "stateMutability": "nonpayable",
      "type": "function"
    },
    {
      "inputs": [
        {
          "internalType": "contract IERC20Metadata",
          "name": "token",
          "type": "address"
        },
        {
          "internalType": "uint256",
          "name": "amount",
          "type": "uint256"
        },
        {
          "internalType": "address",
          "name": "from",
          "type": "address"
        }
      ],
      "name": "aaveWithdraw",
      "outputs": [],
      "stateMutability": "nonpayable",
      "type": "function"
    },
    {
      "inputs": [
        {
          "internalType": "bytes[]",
          "name": "data",
          "type": "bytes[]"
        }
      ],
      "name": "multicall",
      "outputs": [
        {
          "internalType": "bytes[]",
          "name": "results",
          "type": "bytes[]"
        }
      ],
      "stateMutability": "nonpayable",
      "type": "function"
    },
    {
      "inputs": [
        {
          "internalType": "address",
          "name": "tokenIn",
          "type": "address"
        },
        {
          "internalType": "address",
          "name": "tokenOut",
          "type": "address"
        },
        {
          "internalType": "uint256",
          "name": "amountIn",
          "type": "uint256"
        },
        {
          "internalType": "uint256",
          "name": "minAmountOut",
          "type": "uint256"
        }
      ],
      "name": "oneInchSwap",
      "outputs": [],
      "stateMutability": "nonpayable",
      "type": "function"
    },
    {
      "inputs": [],
      "name": "owner",
      "outputs": [
        {
          "internalType": "address",
          "name": "",
          "type": "address"
        }
      ],
      "stateMutability": "view",
      "type": "function"
    },
    {
      "inputs": [],
      "name": "renounceOwnership",
      "outputs": [],
      "stateMutability": "nonpayable",
      "type": "function"
    },
    {
      "inputs": [
        {
          "internalType": "enum Oven.Flavor",
          "name": "_flavor",
          "type": "uint8"
        },
        {
          "internalType": "address",
          "name": "_adapter",
          "type": "address"
        }
      ],
      "name": "setFavour",
      "outputs": [],
      "stateMutability": "nonpayable",
      "type": "function"
    },
    {
      "inputs": [
        {
          "internalType": "address",
          "name": "newOwner",
          "type": "address"
        }
      ],
      "name": "transferOwnership",
      "outputs": [],
      "stateMutability": "nonpayable",
      "type": "function"
    }
  ],
  "bytecode": {
    "object": "0x608060405234801561001057600080fd5b50338061003757604051631e4fbdf760e01b81526000600482015260240160405180910390fd5b61004081610046565b50610096565b600080546001600160a01b038381166001600160a01b0319831681178455604051919092169283917f8be0079c531659141344cd1fd0a4f28419497f9722a3daafe3b4186f6b6457e09190a35050565b610f34806100a56000396000f3fe608060405234801561001057600080fd5b50600436106100885760003560e01c8063715018a61161005b578063715018a6146100db5780638da5cb5b146100e3578063ac9650d814610110578063f2fde38b1461013057600080fd5b806339e05c131461008d578063471ce3a5146100a2578063571e1824146100b5578063599ec3df146100c8575b600080fd5b6100a061009b366004610b39565b610143565b005b6100a06100b0366004610b7b565b6103a5565b6100a06100c3366004610bc1565b61047b565b6100a06100d6366004610c20565b610713565b6100a0610793565b60005460405173ffffffffffffffffffffffffffffffffffffffff90911681526020015b60405180910390f35b61012361011e366004610c5d565b6107a7565b6040516101079190610cf6565b6100a061013e366004610dac565b61088f565b6040517f23b872dd00000000000000000000000000000000000000000000000000000000815273ffffffffffffffffffffffffffffffffffffffff8281166004830152306024830152604482018490528416906323b872dd906064016020604051808303816000875af11580156101be573d6000803e3d6000fd5b505050506040513d601f19601f820116820180604052508101906101e29190610dc9565b506000808052600160209081527fa6eef7e35abe7026729641147f7915573c7e97b47efa546f5f6e3230263bcb4954604080517f095ea7b300000000000000000000000000000000000000000000000000000000815273ffffffffffffffffffffffffffffffffffffffff9283166004820181905260248201889052915191949288169363095ea7b393604480840194929383900301908290875af115801561028f573d6000803e3d6000fd5b505050506040513d601f19601f820116820180604052508101906102b39190610dc9565b506040517f5c833bfd00000000000000000000000000000000000000000000000000000000815273ffffffffffffffffffffffffffffffffffffffff8581166004830152602482018590528381166044830152821690635c833bfd90606401600060405180830381600087803b15801561032c57600080fd5b505af1158015610340573d6000803e3d6000fd5b505050508173ffffffffffffffffffffffffffffffffffffffff16838573ffffffffffffffffffffffffffffffffffffffff167f0a4968288dc5edb49f806f103dfd70b854314a4d5c20a85bd1617f9baf6942a460405160405180910390a450505050565b600160008181526020919091527fcc69885fda6bcc1a4ace058b4a62bf5e179ea78fd58a1ccd71c22cc9b688792f54604080517fcb2e2c2000000000000000000000000000000000000000000000000000000000815273ffffffffffffffffffffffffffffffffffffffff8881166004830152878116602483015260448201879052606482018690523360848301529151919092169263cb2e2c209260a4808201939182900301818387803b15801561045d57600080fd5b505af1158015610471573d6000803e3d6000fd5b5050505050505050565b6040517f23b872dd00000000000000000000000000000000000000000000000000000000815273ffffffffffffffffffffffffffffffffffffffff8281166004830152306024830152604482018590528616906323b872dd906064016020604051808303816000875af11580156104f6573d6000803e3d6000fd5b505050506040513d601f19601f8201168201806040525081019061051a9190610dc9565b506000808052600160209081527fa6eef7e35abe7026729641147f7915573c7e97b47efa546f5f6e3230263bcb4954604080517f095ea7b300000000000000000000000000000000000000000000000000000000815273ffffffffffffffffffffffffffffffffffffffff928316600482018190526024820189905291519194928a169363095ea7b393604480840194929383900301908290875af11580156105c7573d6000803e3d6000fd5b505050506040513d601f19601f820116820180604052508101906105eb9190610dc9565b506040517f70649ada00000000000000000000000000000000000000000000000000000000815273ffffffffffffffffffffffffffffffffffffffff878116600483015286811660248301526044820186905283811660648301528216906370649ada90608401600060405180830381600087803b15801561066c57600080fd5b505af1158015610680573d6000803e3d6000fd5b505050508173ffffffffffffffffffffffffffffffffffffffff168573ffffffffffffffffffffffffffffffffffffffff168773ffffffffffffffffffffffffffffffffffffffff167f27d8a481d9d0ab9ef263009d9e4a2175091b29269b7054995aea5ef4e77ccff98787604051610703929190918252602082015260400190565b60405180910390a4505050505050565b61071b6108f8565b806001600084600181111561073257610732610deb565b600181111561074357610743610deb565b815260200190815260200160002060006101000a81548173ffffffffffffffffffffffffffffffffffffffff021916908373ffffffffffffffffffffffffffffffffffffffff1602179055505050565b61079b6108f8565b6107a5600061094b565b565b6040805160008152602081019091526060908267ffffffffffffffff8111156107d2576107d2610e1a565b60405190808252806020026020018201604052801561080557816020015b60608152602001906001900390816107f05790505b50915060005b83811015610887576108623086868481811061082957610829610e49565b905060200281019061083b9190610e78565b8560405160200161084e93929190610ee4565b6040516020818303038152906040526109c0565b83828151811061087457610874610e49565b602090810291909101015260010161080b565b505092915050565b6108976108f8565b73ffffffffffffffffffffffffffffffffffffffff81166108ec576040517f1e4fbdf7000000000000000000000000000000000000000000000000000000008152600060048201526024015b60405180910390fd5b6108f58161094b565b50565b60005473ffffffffffffffffffffffffffffffffffffffff1633146107a5576040517f118cdaa70000000000000000000000000000000000000000000000000000000081523360048201526024016108e3565b6000805473ffffffffffffffffffffffffffffffffffffffff8381167fffffffffffffffffffffffff0000000000000000000000000000000000000000831681178455604051919092169283917f8be0079c531659141344cd1fd0a4f28419497f9722a3daafe3b4186f6b6457e09190a35050565b60606000808473ffffffffffffffffffffffffffffffffffffffff16846040516109ea9190610f0b565b600060405180830381855af49150503d8060008114610a25576040519150601f19603f3d011682016040523d82523d6000602084013e610a2a565b606091505b5091509150610a3a858383610a43565b95945050505050565b606082610a5857610a5382610ad5565b610ace565b8151158015610a7c575073ffffffffffffffffffffffffffffffffffffffff84163b155b15610acb576040517f9996b31500000000000000000000000000000000000000000000000000000000815273ffffffffffffffffffffffffffffffffffffffff851660048201526024016108e3565b50805b9392505050565b805115610ae55780518082602001fd5b6040517f1425ea4200000000000000000000000000000000000000000000000000000000815260040160405180910390fd5b73ffffffffffffffffffffffffffffffffffffffff811681146108f557600080fd5b600080600060608486031215610b4e57600080fd5b8335610b5981610b17565b9250602084013591506040840135610b7081610b17565b809150509250925092565b60008060008060808587031215610b9157600080fd5b8435610b9c81610b17565b93506020850135610bac81610b17565b93969395505050506040820135916060013590565b600080600080600060a08688031215610bd957600080fd5b8535610be481610b17565b94506020860135610bf481610b17565b935060408601359250606086013591506080860135610c1281610b17565b809150509295509295909350565b60008060408385031215610c3357600080fd5b823560028110610c4257600080fd5b91506020830135610c5281610b17565b809150509250929050565b60008060208385031215610c7057600080fd5b823567ffffffffffffffff80821115610c8857600080fd5b818501915085601f830112610c9c57600080fd5b813581811115610cab57600080fd5b8660208260051b8501011115610cc057600080fd5b60209290920196919550909350505050565b60005b83811015610ced578181015183820152602001610cd5565b50506000910152565b6000602080830181845280855180835260408601915060408160051b870101925083870160005b82811015610d9f577fffffffffffffffffffffffffffffffffffffffffffffffffffffffffffffffc088860301845281518051808752610d62818989018a8501610cd2565b601f017fffffffffffffffffffffffffffffffffffffffffffffffffffffffffffffffe01695909501860194509285019290850190600101610d1d565b5092979650505050505050565b600060208284031215610dbe57600080fd5b8135610ace81610b17565b600060208284031215610ddb57600080fd5b81518015158114610ace57600080fd5b7f4e487b7100000000000000000000000000000000000000000000000000000000600052602160045260246000fd5b7f4e487b7100000000000000000000000000000000000000000000000000000000600052604160045260246000fd5b7f4e487b7100000000000000000000000000000000000000000000000000000000600052603260045260246000fd5b60008083357fffffffffffffffffffffffffffffffffffffffffffffffffffffffffffffffe1843603018112610ead57600080fd5b83018035915067ffffffffffffffff821115610ec857600080fd5b602001915036819003821315610edd57600080fd5b9250929050565b828482376000838201600081528351610f01818360208801610cd2565b0195945050505050565b60008251610f1d818460208701610cd2565b919091019291505056fea164736f6c6343000816000a",
    "linkReferences": {}
  },
  "methodIdentifiers": {
    "aaveSupplyAndBorrow(address,address,uint256,uint256,address)": "571e1824",
    "aaveWithdraw(address,uint256,address)": "39e05c13",
    "multicall(bytes[])": "ac9650d8",
    "oneInchSwap(address,address,uint256,uint256)": "471ce3a5",
    "owner()": "8da5cb5b",
    "renounceOwnership()": "715018a6",
    "setFavour(uint8,address)": "599ec3df",
    "transferOwnership(address)": "f2fde38b"
  },
  "id": 22
}