{
  "abi": [
    {
      "inputs": [
        {
          "internalType": "address",
          "name": "_oven",
          "type": "address"
        },
        {
          "internalType": "contract IPoolAddressProvider",
          "name": "_poolAddressesProvider",
          "type": "address"
        },
        {
          "internalType": "contract IWETHGateway",
          "name": "_wethGateway",
          "type": "address"
        },
        {
          "internalType": "contract IDataProvider",
          "name": "_dataProvider",
          "type": "address"
        },
        {
          "internalType": "contract IWETH",
          "name": "_weth",
          "type": "address"
        },
        {
          "internalType": "contract IAggregator",
          "name": "_aggregator",
          "type": "address"
        }
      ],
      "stateMutability": "nonpayable",
      "type": "constructor"
    },
    {
      "inputs": [
        {
          "internalType": "uint256",
          "name": "x",
          "type": "uint256"
        },
        {
          "internalType": "uint256",
          "name": "y",
          "type": "uint256"
        },
        {
          "internalType": "uint256",
          "name": "denominator",
          "type": "uint256"
        }
      ],
      "name": "PRBMath_MulDiv_Overflow",
      "type": "error"
    },
    {
      "inputs": [],
      "name": "aggregator",
      "outputs": [
        {
          "internalType": "contract IAggregator",
          "name": "",
          "type": "address"
        }
      ],
      "stateMutability": "view",
      "type": "function"
    },
    {
      "inputs": [],
      "name": "dataProvider",
      "outputs": [
        {
          "internalType": "contract IDataProvider",
          "name": "",
          "type": "address"
        }
      ],
      "stateMutability": "view",
      "type": "function"
    },
    {
      "inputs": [],
      "name": "lendingPool",
      "outputs": [
        {
          "internalType": "contract ILendingPoolV3",
          "name": "",
          "type": "address"
        }
      ],
      "stateMutability": "view",
      "type": "function"
    },
    {
      "inputs": [],
      "name": "oven",
      "outputs": [
        {
          "internalType": "address",
          "name": "",
          "type": "address"
        }
      ],
      "stateMutability": "view",
      "type": "function"
    },
    {
      "inputs": [
        {
          "internalType": "contract IERC20Metadata",
          "name": "_token",
          "type": "address"
        },
        {
          "internalType": "uint256",
          "name": "_amount",
          "type": "uint256"
        },
        {
          "internalType": "address",
          "name": "_user",
          "type": "address"
        }
      ],
      "name": "redeem",
      "outputs": [],
      "stateMutability": "nonpayable",
      "type": "function"
    },
    {
      "inputs": [
        {
          "internalType": "contract IERC20Metadata",
          "name": "_depositToken",
          "type": "address"
        },
        {
          "internalType": "contract IERC20Metadata",
          "name": "_borrowToken",
          "type": "address"
        },
        {
          "internalType": "uint256",
          "name": "_amount",
          "type": "uint256"
        },
        {
          "internalType": "address",
          "name": "_user",
          "type": "address"
        }
      ],
      "name": "supplyAndBorrow",
      "outputs": [],
      "stateMutability": "payable",
      "type": "function"
    },
    {
      "inputs": [],
      "name": "weth",
      "outputs": [
        {
          "internalType": "contract IWETH",
          "name": "",
          "type": "address"
        }
      ],
      "stateMutability": "view",
      "type": "function"
    },
    {
      "inputs": [],
      "name": "wethGateway",
      "outputs": [
        {
          "internalType": "contract IWETHGateway",
          "name": "",
          "type": "address"
        }
      ],
      "stateMutability": "view",
      "type": "function"
    }
  ],
  "bytecode": {
    "object": "0x6101406040523480156200001257600080fd5b506040516200137438038062001374833981016040819052620000359162000081565b6001600160a01b0395861661012052600060a05292851660805290841660e052831660c052909116610100525062000115565b6001600160a01b03811681146200007e57600080fd5b50565b60008060008060008060c087890312156200009b57600080fd5b8651620000a88162000068565b6020880151909650620000bb8162000068565b6040880151909550620000ce8162000068565b6060880151909450620000e18162000068565b6080880151909350620000f48162000068565b60a0880151909250620001078162000068565b809150509295509295509295565b60805160a05160c05160e051610100516101205161117e620001f6600039600081816101580152818161022e01526106d6015260008181609201528181610b850152610bdc0152600081816101c00152818161034d015261040801526000818160ef0152818161027801528181610325015281816107200152818161077501526107f501526000818161018c015281816105700152818161065d015281816108a40152818161097901528181610a5101528181610af60152610de80152600081816101f4015281816104b6015281816105a701526108d9015261117e6000f3fe60806040526004361061007b5760003560e01c80639d908f5a1161004e5780639d908f5a14610146578063a59a99731461017a578063b334ed86146101ae578063c5e10eef146101e257600080fd5b8063245a7bfc146100805780633fc8cef3146100dd5780635c833bfd1461011157806370649ada14610133575b600080fd5b34801561008c57600080fd5b506100b47f000000000000000000000000000000000000000000000000000000000000000081565b60405173ffffffffffffffffffffffffffffffffffffffff909116815260200160405180910390f35b3480156100e957600080fd5b506100b47f000000000000000000000000000000000000000000000000000000000000000081565b34801561011d57600080fd5b5061013161012c366004610f88565b610216565b005b610131610141366004610fca565b6106be565b34801561015257600080fd5b506100b47f000000000000000000000000000000000000000000000000000000000000000081565b34801561018657600080fd5b506100b47f000000000000000000000000000000000000000000000000000000000000000081565b3480156101ba57600080fd5b506100b47f000000000000000000000000000000000000000000000000000000000000000081565b3480156101ee57600080fd5b506100b47f000000000000000000000000000000000000000000000000000000000000000081565b3373ffffffffffffffffffffffffffffffffffffffff7f0000000000000000000000000000000000000000000000000000000000000000161461025857600080fd5b73ffffffffffffffffffffffffffffffffffffffff831615806102c657507f000000000000000000000000000000000000000000000000000000000000000073ffffffffffffffffffffffffffffffffffffffff168373ffffffffffffffffffffffffffffffffffffffff16145b1561060957600073ffffffffffffffffffffffffffffffffffffffff84166103c3576040517fd2493b6c00000000000000000000000000000000000000000000000000000000815273ffffffffffffffffffffffffffffffffffffffff7f0000000000000000000000000000000000000000000000000000000000000000811660048301527f0000000000000000000000000000000000000000000000000000000000000000169063d2493b6c90602401606060405180830381865afa158015610394573d6000803e3d6000fd5b505050506040513d601f19601f820116820180604052508101906103b8919061101d565b509091506104799050565b6040517fd2493b6c00000000000000000000000000000000000000000000000000000000815273ffffffffffffffffffffffffffffffffffffffff85811660048301527f0000000000000000000000000000000000000000000000000000000000000000169063d2493b6c90602401606060405180830381865afa15801561044f573d6000803e3d6000fd5b505050506040513d601f19601f82011682018060405250810190610473919061101d565b50909150505b6040517f095ea7b300000000000000000000000000000000000000000000000000000000815273ffffffffffffffffffffffffffffffffffffffff7f0000000000000000000000000000000000000000000000000000000000000000811660048301526024820185905282169063095ea7b3906044016020604051808303816000875af115801561050e573d6000803e3d6000fd5b505050506040513d601f19601f82011682018060405250810190610532919061105f565b506040517f80500d2000000000000000000000000000000000000000000000000000000000815273ffffffffffffffffffffffffffffffffffffffff7f0000000000000000000000000000000000000000000000000000000000000000811660048301526024820185905283811660448301527f000000000000000000000000000000000000000000000000000000000000000016906380500d2090606401600060405180830381600087803b1580156105eb57600080fd5b505af11580156105ff573d6000803e3d6000fd5b5050505050505050565b6040517f69328dec00000000000000000000000000000000000000000000000000000000815273ffffffffffffffffffffffffffffffffffffffff84811660048301526024820184905282811660448301527f000000000000000000000000000000000000000000000000000000000000000016906369328dec90606401600060405180830381600087803b1580156106a157600080fd5b505af11580156106b5573d6000803e3d6000fd5b50505050505050565b3373ffffffffffffffffffffffffffffffffffffffff7f0000000000000000000000000000000000000000000000000000000000000000161461070057600080fd5b73ffffffffffffffffffffffffffffffffffffffff8416158061076e57507f000000000000000000000000000000000000000000000000000000000000000073ffffffffffffffffffffffffffffffffffffffff168473ffffffffffffffffffffffffffffffffffffffff16145b1561093c577f000000000000000000000000000000000000000000000000000000000000000073ffffffffffffffffffffffffffffffffffffffff168473ffffffffffffffffffffffffffffffffffffffff1603610867576040517f2e1a7d4d000000000000000000000000000000000000000000000000000000008152600481018390527f000000000000000000000000000000000000000000000000000000000000000073ffffffffffffffffffffffffffffffffffffffff1690632e1a7d4d90602401600060405180830381600087803b15801561084e57600080fd5b505af1158015610862573d6000803e3d6000fd5b505050505b6040517f474cf53d00000000000000000000000000000000000000000000000000000000815273ffffffffffffffffffffffffffffffffffffffff7f000000000000000000000000000000000000000000000000000000000000000081166004830152306024830152600060448301527f0000000000000000000000000000000000000000000000000000000000000000169063474cf53d9084906064016000604051808303818588803b15801561091e57600080fd5b505af1158015610932573d6000803e3d6000fd5b5050505050610aae565b6040517f095ea7b300000000000000000000000000000000000000000000000000000000815273ffffffffffffffffffffffffffffffffffffffff7f0000000000000000000000000000000000000000000000000000000000000000811660048301526024820184905285169063095ea7b3906044016020604051808303816000875af11580156109d1573d6000803e3d6000fd5b505050506040513d601f19601f820116820180604052508101906109f5919061105f565b506040517f617ba03700000000000000000000000000000000000000000000000000000000815273ffffffffffffffffffffffffffffffffffffffff8581166004830152602482018490528281166044830152600060648301527f0000000000000000000000000000000000000000000000000000000000000000169063617ba03790608401600060405180830381600087803b158015610a9557600080fd5b505af1158015610aa9573d6000803e3d6000fd5b505050505b6040517fbf92857c00000000000000000000000000000000000000000000000000000000815273ffffffffffffffffffffffffffffffffffffffff82811660048301526000917f00000000000000000000000000000000000000000000000000000000000000009091169063bf92857c9060240160c060405180830381865afa158015610b3f573d6000803e3d6000fd5b505050506040513d601f19601f82011682018060405250810190610b639190611081565b5050509250505060008073ffffffffffffffffffffffffffffffffffffffff167f000000000000000000000000000000000000000000000000000000000000000073ffffffffffffffffffffffffffffffffffffffff1614610cf5576000610bd08361251c612710610e4e565b90506000610c6e8260017f000000000000000000000000000000000000000000000000000000000000000073ffffffffffffffffffffffffffffffffffffffff166350d25bcd6040518163ffffffff1660e01b8152600401602060405180830381865afa158015610c45573d6000803e3d6000fd5b505050506040513d601f19601f82011682018060405250810190610c6991906110cb565b610e4e565b90508673ffffffffffffffffffffffffffffffffffffffff1663313ce5676040518163ffffffff1660e01b8152600401602060405180830381865afa158015610cbb573d6000803e3d6000fd5b505050506040513d601f19601f82011682018060405250810190610cdf91906110e4565b610cec9060ff1682611136565b90505050610d07565b610d0484611388612710610e4e565b90505b8473ffffffffffffffffffffffffffffffffffffffff1663313ce5676040518163ffffffff1660e01b8152600401602060405180830381865afa158015610d52573d6000803e3d6000fd5b505050506040513d601f19601f82011682018060405250810190610d7691906110e4565b610d839060ff1682611136565b6040517fa415bcad00000000000000000000000000000000000000000000000000000000815273ffffffffffffffffffffffffffffffffffffffff878116600483015260248201839052600160448301526000606483015285811660848301529192507f00000000000000000000000000000000000000000000000000000000000000009091169063a415bcad9060a401600060405180830381600087803b158015610e2e57600080fd5b505af1158015610e42573d6000803e3d6000fd5b50505050505050505050565b600080807fffffffffffffffffffffffffffffffffffffffffffffffffffffffffffffffff85870985870292508281108382030391505080600003610ea657838281610e9c57610e9c611107565b0492505050610f5c565b838110610ef4576040517f63a0577800000000000000000000000000000000000000000000000000000000815260048101879052602481018690526044810185905260640160405180910390fd5b600084868809851960019081018716968790049682860381900495909211909303600082900391909104909201919091029190911760038402600290811880860282030280860282030280860282030280860282030280860282030280860290910302029150505b9392505050565b73ffffffffffffffffffffffffffffffffffffffff81168114610f8557600080fd5b50565b600080600060608486031215610f9d57600080fd5b8335610fa881610f63565b9250602084013591506040840135610fbf81610f63565b809150509250925092565b60008060008060808587031215610fe057600080fd5b8435610feb81610f63565b93506020850135610ffb81610f63565b925060408501359150606085013561101281610f63565b939692955090935050565b60008060006060848603121561103257600080fd5b835161103d81610f63565b602085015190935061104e81610f63565b6040850151909250610fbf81610f63565b60006020828403121561107157600080fd5b81518015158114610f5c57600080fd5b60008060008060008060c0878903121561109a57600080fd5b865195506020870151945060408701519350606087015192506080870151915060a087015190509295509295509295565b6000602082840312156110dd57600080fd5b5051919050565b6000602082840312156110f657600080fd5b815160ff81168114610f5c57600080fd5b7f4e487b7100000000000000000000000000000000000000000000000000000000600052601260045260246000fd5b60008261116c577f4e487b7100000000000000000000000000000000000000000000000000000000600052601260045260246000fd5b50049056fea164736f6c6343000816000a",
    "linkReferences": {}
  },
  "methodIdentifiers": {
    "aggregator()": "245a7bfc",
    "dataProvider()": "b334ed86",
    "lendingPool()": "a59a9973",
    "oven()": "9d908f5a",
    "redeem(address,uint256,address)": "5c833bfd",
    "supplyAndBorrow(address,address,uint256,address)": "70649ada",
    "weth()": "3fc8cef3",
    "wethGateway()": "c5e10eef"
  },
  "id": 19
}